{
	"data": {
		"bytecode": {
			"linkReferences": {},
			"object": "60806040526040518060800160405280633b9aca0064ffffffffff16815260200164012a05f20064ffffffffff1681526020016402540be40064ffffffffff168152602001640ba43b740064ffffffffff16815250600590600462000066929190620003fd565b5034801562000073575f80fd5b5060405162001c7638038062001c7683398181016040528101906200009991906200051a565b805f73ffffffffffffffffffffffffffffffffffffffff168173ffffffffffffffffffffffffffffffffffffffff16036200010d575f6040517f1e4fbdf70000000000000000000000000000000000000000000000000000000081526004016200010491906200059a565b60405180910390fd5b6200011e816200033c60201b60201c565b505f73ffffffffffffffffffffffffffffffffffffffff168473ffffffffffffffffffffffffffffffffffffffff160362000190576040517f08c379a0000000000000000000000000000000000000000000000000000000008152600401620001879062000613565b60405180910390fd5b5f73ffffffffffffffffffffffffffffffffffffffff168373ffffffffffffffffffffffffffffffffffffffff160362000201576040517f08c379a0000000000000000000000000000000000000000000000000000000008152600401620001f89062000681565b60405180910390fd5b5f73ffffffffffffffffffffffffffffffffffffffff168273ffffffffffffffffffffffffffffffffffffffff160362000272576040517f08c379a00000000000000000000000000000000000000000000000000000000081526004016200026990620006ef565b60405180910390fd5b8360015f6101000a81548173ffffffffffffffffffffffffffffffffffffffff021916908373ffffffffffffffffffffffffffffffffffffffff1602179055508260025f6101000a81548173ffffffffffffffffffffffffffffffffffffffff021916908373ffffffffffffffffffffffffffffffffffffffff1602179055508160035f6101000a81548173ffffffffffffffffffffffffffffffffffffffff021916908373ffffffffffffffffffffffffffffffffffffffff160217905550505050506200070f565b5f805f9054906101000a900473ffffffffffffffffffffffffffffffffffffffff169050815f806101000a81548173ffffffffffffffffffffffffffffffffffffffff021916908373ffffffffffffffffffffffffffffffffffffffff1602179055508173ffffffffffffffffffffffffffffffffffffffff168173ffffffffffffffffffffffffffffffffffffffff167f8be0079c531659141344cd1fd0a4f28419497f9722a3daafe3b4186f6b6457e060405160405180910390a35050565b828054828255905f5260205f2090810192821562000443579160200282015b8281111562000442578251829064ffffffffff169055916020019190600101906200041c565b5b50905062000452919062000456565b5090565b5b808211156200046f575f815f90555060010162000457565b5090565b5f80fd5b5f73ffffffffffffffffffffffffffffffffffffffff82169050919050565b5f620004a28262000477565b9050919050565b620004b48162000496565b8114620004bf575f80fd5b50565b5f81519050620004d281620004a9565b92915050565b5f620004e48262000477565b9050919050565b620004f681620004d8565b811462000501575f80fd5b50565b5f815190506200051481620004eb565b92915050565b5f805f806080858703121562000535576200053462000473565b5b5f6200054487828801620004c2565b9450506020620005578782880162000504565b93505060406200056a8782880162000504565b92505060606200057d8782880162000504565b91505092959194509250565b6200059481620004d8565b82525050565b5f602082019050620005af5f83018462000589565b92915050565b5f82825260208201905092915050565b7f496e76616c69642074726561737572792077616c6c65740000000000000000005f82015250565b5f620005fb601783620005b5565b91506200060882620005c5565b602082019050919050565b5f6020820190508181035f8301526200062c81620005ed565b9050919050565b7f496e76616c696420746f6b656e206164647265737300000000000000000000005f82015250565b5f62000669601583620005b5565b9150620006768262000633565b602082019050919050565b5f6020820190508181035f8301526200069a816200065b565b9050919050565b7f496e76616c6964205553445420616464726573730000000000000000000000005f82015250565b5f620006d7601483620005b5565b9150620006e482620006a1565b602082019050919050565b5f6020820190508181035f8301526200070881620006c9565b9050919050565b611559806200071d5f395ff3fe6080604052600436106100c0575f3560e01c8063809d458d1161007e578063b030481311610058578063b030481314610226578063e89e4ed614610250578063f2fde38b1461028c578063f8d0bb6f146102b4576100c0565b8063809d458d146101aa5780638da5cb5b146101d2578063a98ad46c146101fc576100c0565b8062b37044146100c457806314a8bd0d146100ee5780634626402b146101185780635610eca014610142578063715018a61461016a5780637e43c77d14610180575b5f80fd5b3480156100cf575f80fd5b506100d86102be565b6040516100e59190610cd4565b60405180910390f35b3480156100f9575f80fd5b506101026102c4565b60405161010f9190610cd4565b60405180910390f35b348015610123575f80fd5b5061012c6102d0565b6040516101399190610d2c565b60405180910390f35b34801561014d575f80fd5b5061016860048036038101906101639190610d73565b6102f5565b005b348015610175575f80fd5b5061017e610562565b005b34801561018b575f80fd5b50610194610575565b6040516101a19190610df9565b60405180910390f35b3480156101b5575f80fd5b506101d060048036038101906101cb9190610e3c565b61059a565b005b3480156101dd575f80fd5b506101e6610653565b6040516101f39190610e87565b60405180910390f35b348015610207575f80fd5b5061021061067a565b60405161021d9190610ec0565b60405180910390f35b348015610231575f80fd5b5061023a61069f565b6040516102479190610cd4565b60405180910390f35b34801561025b575f80fd5b5061027660048036038101906102719190610d73565b6106a5565b6040516102839190610cd4565b60405180910390f35b348015610297575f80fd5b506102b260048036038101906102ad9190610f03565b6106c5565b005b6102bc610749565b005b60045481565b67016345785d8a000081565b60015f9054906101000a900473ffffffffffffffffffffffffffffffffffffffff1681565b5f8111610337576040517f08c379a000000000000000000000000000000000000000000000000000000000815260040161032e90610f88565b60405180910390fd5b6103a63360015f9054906101000a900473ffffffffffffffffffffffffffffffffffffffff168360035f9054906101000a900473ffffffffffffffffffffffffffffffffffffffff1673ffffffffffffffffffffffffffffffffffffffff1661098f909392919063ffffffff16565b5f60035f9054906101000a900473ffffffffffffffffffffffffffffffffffffffff1673ffffffffffffffffffffffffffffffffffffffff1663313ce5676040518163ffffffff1660e01b8152600401602060405180830381865afa158015610411573d5f803e3d5ffd5b505050506040513d601f19601f820116820180604052508101906104359190610fdc565b600a6104419190611163565b67016345785d8a00008361045591906111ad565b61045f919061121b565b905060025f9054906101000a900473ffffffffffffffffffffffffffffffffffffffff1673ffffffffffffffffffffffffffffffffffffffff166340c10f1933836040518363ffffffff1660e01b81526004016104bd92919061124b565b5f604051808303815f87803b1580156104d4575f80fd5b505af11580156104e6573d5f803e3d5ffd5b505050508160045f8282546104fb9190611272565b9250508190555061050a610a11565b3373ffffffffffffffffffffffffffffffffffffffff167f1ce55f2081708dbef7ac42c3785b4627ccd4aa19f21b694b54c92df3d146996a8383600454604051610556939291906112a5565b60405180910390a25050565b61056a610ad2565b6105735f610b59565b565b60025f9054906101000a900473ffffffffffffffffffffffffffffffffffffffff1681565b6105a2610ad2565b5f73ffffffffffffffffffffffffffffffffffffffff168173ffffffffffffffffffffffffffffffffffffffff1603610610576040517f08c379a000000000000000000000000000000000000000000000000000000000815260040161060790611324565b60405180910390fd5b8060015f6101000a81548173ffffffffffffffffffffffffffffffffffffffff021916908373ffffffffffffffffffffffffffffffffffffffff16021790555050565b5f805f9054906101000a900473ffffffffffffffffffffffffffffffffffffffff16905090565b60035f9054906101000a900473ffffffffffffffffffffffffffffffffffffffff1681565b60065481565b600581815481106106b4575f80fd5b905f5260205f20015f915090505481565b6106cd610ad2565b5f73ffffffffffffffffffffffffffffffffffffffff168173ffffffffffffffffffffffffffffffffffffffff160361073d575f6040517f1e4fbdf70000000000000000000000000000000000000000000000000000000081526004016107349190610e87565b60405180910390fd5b61074681610b59565b50565b5f341161078b576040517f08c379a00000000000000000000000000000000000000000000000000000000081526004016107829061138c565b60405180910390fd5b5f60015f9054906101000a900473ffffffffffffffffffffffffffffffffffffffff1673ffffffffffffffffffffffffffffffffffffffff16346040516107d1906113d7565b5f6040518083038185875af1925050503d805f811461080b576040519150601f19603f3d011682016040523d82523d5f602084013e610810565b606091505b5050905080610854576040517f08c379a000000000000000000000000000000000000000000000000000000000815260040161084b90611435565b60405180910390fd5b5f670de0b6b3a764000067016345785d8a00003461087291906111ad565b61087c919061121b565b905060025f9054906101000a900473ffffffffffffffffffffffffffffffffffffffff1673ffffffffffffffffffffffffffffffffffffffff166340c10f1933836040518363ffffffff1660e01b81526004016108da92919061124b565b5f604051808303815f87803b1580156108f1575f80fd5b505af1158015610903573d5f803e3d5ffd5b5050505064e8d4a5100034610918919061121b565b60045f8282546109289190611272565b92505081905550610937610a11565b3373ffffffffffffffffffffffffffffffffffffffff167f9c9ad9270af0183a99bf47ee6beebcad2fc6ef1992082283d76ec94947158b513483600454604051610983939291906112a5565b60405180910390a25050565b610a0b848573ffffffffffffffffffffffffffffffffffffffff166323b872dd8686866040516024016109c493929190611453565b604051602081830303815290604052915060e01b6020820180517bffffffffffffffffffffffffffffffffffffffffffffffffffffffff8381831617835250505050610c1a565b50505050565b5f60065490505b600580549050811015610acf5760058181548110610a3957610a38611488565b5b905f5260205f20015460045410610ab757600181610a579190611272565b6006819055507fe5f196b7c35531c9cdf28ee121967688b244c8557b574489a6182e8f66c929d360058281548110610a9257610a91611488565b5b905f5260205f20015482604051610aaa9291906114b5565b60405180910390a1610abc565b610acf565b8080610ac7906114dc565b915050610a18565b50565b610ada610cb5565b73ffffffffffffffffffffffffffffffffffffffff16610af8610653565b73ffffffffffffffffffffffffffffffffffffffff1614610b5757610b1b610cb5565b6040517f118cdaa7000000000000000000000000000000000000000000000000000000008152600401610b4e9190610e87565b60405180910390fd5b565b5f805f9054906101000a900473ffffffffffffffffffffffffffffffffffffffff169050815f806101000a81548173ffffffffffffffffffffffffffffffffffffffff021916908373ffffffffffffffffffffffffffffffffffffffff1602179055508173ffffffffffffffffffffffffffffffffffffffff168173ffffffffffffffffffffffffffffffffffffffff167f8be0079c531659141344cd1fd0a4f28419497f9722a3daafe3b4186f6b6457e060405160405180910390a35050565b5f8060205f8451602086015f885af180610c39576040513d5f823e3d81fd5b3d92505f519150505f8214610c52576001811415610c6d565b5f8473ffffffffffffffffffffffffffffffffffffffff163b145b15610caf57836040517f5274afe7000000000000000000000000000000000000000000000000000000008152600401610ca69190610e87565b60405180910390fd5b50505050565b5f33905090565b5f819050919050565b610cce81610cbc565b82525050565b5f602082019050610ce75f830184610cc5565b92915050565b5f73ffffffffffffffffffffffffffffffffffffffff82169050919050565b5f610d1682610ced565b9050919050565b610d2681610d0c565b82525050565b5f602082019050610d3f5f830184610d1d565b92915050565b5f80fd5b610d5281610cbc565b8114610d5c575f80fd5b50565b5f81359050610d6d81610d49565b92915050565b5f60208284031215610d8857610d87610d45565b5b5f610d9584828501610d5f565b91505092915050565b5f819050919050565b5f610dc1610dbc610db784610ced565b610d9e565b610ced565b9050919050565b5f610dd282610da7565b9050919050565b5f610de382610dc8565b9050919050565b610df381610dd9565b82525050565b5f602082019050610e0c5f830184610dea565b92915050565b610e1b81610d0c565b8114610e25575f80fd5b50565b5f81359050610e3681610e12565b92915050565b5f60208284031215610e5157610e50610d45565b5b5f610e5e84828501610e28565b91505092915050565b5f610e7182610ced565b9050919050565b610e8181610e67565b82525050565b5f602082019050610e9a5f830184610e78565b92915050565b5f610eaa82610dc8565b9050919050565b610eba81610ea0565b82525050565b5f602082019050610ed35f830184610eb1565b92915050565b610ee281610e67565b8114610eec575f80fd5b50565b5f81359050610efd81610ed9565b92915050565b5f60208284031215610f1857610f17610d45565b5b5f610f2584828501610eef565b91505092915050565b5f82825260208201905092915050565b7f416d6f756e74206d7573742062652067726561746572207468616e20300000005f82015250565b5f610f72601d83610f2e565b9150610f7d82610f3e565b602082019050919050565b5f6020820190508181035f830152610f9f81610f66565b9050919050565b5f60ff82169050919050565b610fbb81610fa6565b8114610fc5575f80fd5b50565b5f81519050610fd681610fb2565b92915050565b5f60208284031215610ff157610ff0610d45565b5b5f610ffe84828501610fc8565b91505092915050565b7f4e487b71000000000000000000000000000000000000000000000000000000005f52601160045260245ffd5b5f8160011c9050919050565b5f808291508390505b60018511156110895780860481111561106557611064611007565b5b60018516156110745780820291505b808102905061108285611034565b9450611049565b94509492505050565b5f826110a1576001905061115c565b816110ae575f905061115c565b81600181146110c457600281146110ce576110fd565b600191505061115c565b60ff8411156110e0576110df611007565b5b8360020a9150848211156110f7576110f6611007565b5b5061115c565b5060208310610133831016604e8410600b84101617156111325782820a90508381111561112d5761112c611007565b5b61115c565b61113f8484846001611040565b9250905081840481111561115657611155611007565b5b81810290505b9392505050565b5f61116d82610cbc565b915061117883610fa6565b92506111a57fffffffffffffffffffffffffffffffffffffffffffffffffffffffffffffffff8484611092565b905092915050565b5f6111b782610cbc565b91506111c283610cbc565b92508282026111d081610cbc565b915082820484148315176111e7576111e6611007565b5b5092915050565b7f4e487b71000000000000000000000000000000000000000000000000000000005f52601260045260245ffd5b5f61122582610cbc565b915061123083610cbc565b9250826112405761123f6111ee565b5b828204905092915050565b5f60408201905061125e5f830185610e78565b61126b6020830184610cc5565b9392505050565b5f61127c82610cbc565b915061128783610cbc565b925082820190508082111561129f5761129e611007565b5b92915050565b5f6060820190506112b85f830186610cc5565b6112c56020830185610cc5565b6112d26040830184610cc5565b949350505050565b7f496e76616c6964206164647265737300000000000000000000000000000000005f82015250565b5f61130e600f83610f2e565b9150611319826112da565b602082019050919050565b5f6020820190508181035f83015261133b81611302565b9050919050565b7f5a65726f20646f6e6174696f6e206e6f7420616c6c6f776564000000000000005f82015250565b5f611376601983610f2e565b915061138182611342565b602082019050919050565b5f6020820190508181035f8301526113a38161136a565b9050919050565b5f81905092915050565b50565b5f6113c25f836113aa565b91506113cd826113b4565b5f82019050919050565b5f6113e1826113b7565b9150819050919050565b7f504f4c207472616e73666572206661696c6564000000000000000000000000005f82015250565b5f61141f601383610f2e565b915061142a826113eb565b602082019050919050565b5f6020820190508181035f83015261144c81611413565b9050919050565b5f6060820190506114665f830186610e78565b6114736020830185610e78565b6114806040830184610cc5565b949350505050565b7f4e487b71000000000000000000000000000000000000000000000000000000005f52603260045260245ffd5b5f6040820190506114c85f830185610cc5565b6114d56020830184610cc5565b9392505050565b5f6114e682610cbc565b91507fffffffffffffffffffffffffffffffffffffffffffffffffffffffffffffffff820361151857611517611007565b5b60018201905091905056fea2646970667358221220a80fdc270bf5541eb60ef2d77963f947250945d00ee1cb7396b513ded48be76464736f6c63430008140033",
			"opcodes": "PUSH1 0x80 PUSH1 0x40 MSTORE PUSH1 0x40 MLOAD DUP1 PUSH1 0x80 ADD PUSH1 0x40 MSTORE DUP1 PUSH4 0x3B9ACA00 PUSH5 0xFFFFFFFFFF AND DUP2 MSTORE PUSH1 0x20 ADD PUSH5 0x12A05F200 PUSH5 0xFFFFFFFFFF AND DUP2 MSTORE PUSH1 0x20 ADD PUSH5 0x2540BE400 PUSH5 0xFFFFFFFFFF AND DUP2 MSTORE PUSH1 0x20 ADD PUSH5 0xBA43B7400 PUSH5 0xFFFFFFFFFF AND DUP2 MSTORE POP PUSH1 0x5 SWAP1 PUSH1 0x4 PUSH3 0x66 SWAP3 SWAP2 SWAP1 PUSH3 0x3FD JUMP JUMPDEST POP CALLVALUE DUP1 ISZERO PUSH3 0x73 JUMPI PUSH0 DUP1 REVERT JUMPDEST POP PUSH1 0x40 MLOAD PUSH3 0x1C76 CODESIZE SUB DUP1 PUSH3 0x1C76 DUP4 CODECOPY DUP2 DUP2 ADD PUSH1 0x40 MSTORE DUP2 ADD SWAP1 PUSH3 0x99 SWAP2 SWAP1 PUSH3 0x51A JUMP JUMPDEST DUP1 PUSH0 PUSH20 0xFFFFFFFFFFFFFFFFFFFFFFFFFFFFFFFFFFFFFFFF AND DUP2 PUSH20 0xFFFFFFFFFFFFFFFFFFFFFFFFFFFFFFFFFFFFFFFF AND SUB PUSH3 0x10D JUMPI PUSH0 PUSH1 0x40 MLOAD PUSH32 0x1E4FBDF700000000000000000000000000000000000000000000000000000000 DUP2 MSTORE PUSH1 0x4 ADD PUSH3 0x104 SWAP2 SWAP1 PUSH3 0x59A JUMP JUMPDEST PUSH1 0x40 MLOAD DUP1 SWAP2 SUB SWAP1 REVERT JUMPDEST PUSH3 0x11E DUP2 PUSH3 0x33C PUSH1 0x20 SHL PUSH1 0x20 SHR JUMP JUMPDEST POP PUSH0 PUSH20 0xFFFFFFFFFFFFFFFFFFFFFFFFFFFFFFFFFFFFFFFF AND DUP5 PUSH20 0xFFFFFFFFFFFFFFFFFFFFFFFFFFFFFFFFFFFFFFFF AND SUB PUSH3 0x190 JUMPI PUSH1 0x40 MLOAD PUSH32 0x8C379A000000000000000000000000000000000000000000000000000000000 DUP2 MSTORE PUSH1 0x4 ADD PUSH3 0x187 SWAP1 PUSH3 0x613 JUMP JUMPDEST PUSH1 0x40 MLOAD DUP1 SWAP2 SUB SWAP1 REVERT JUMPDEST PUSH0 PUSH20 0xFFFFFFFFFFFFFFFFFFFFFFFFFFFFFFFFFFFFFFFF AND DUP4 PUSH20 0xFFFFFFFFFFFFFFFFFFFFFFFFFFFFFFFFFFFFFFFF AND SUB PUSH3 0x201 JUMPI PUSH1 0x40 MLOAD PUSH32 0x8C379A000000000000000000000000000000000000000000000000000000000 DUP2 MSTORE PUSH1 0x4 ADD PUSH3 0x1F8 SWAP1 PUSH3 0x681 JUMP JUMPDEST PUSH1 0x40 MLOAD DUP1 SWAP2 SUB SWAP1 REVERT JUMPDEST PUSH0 PUSH20 0xFFFFFFFFFFFFFFFFFFFFFFFFFFFFFFFFFFFFFFFF AND DUP3 PUSH20 0xFFFFFFFFFFFFFFFFFFFFFFFFFFFFFFFFFFFFFFFF AND SUB PUSH3 0x272 JUMPI PUSH1 0x40 MLOAD PUSH32 0x8C379A000000000000000000000000000000000000000000000000000000000 DUP2 MSTORE PUSH1 0x4 ADD PUSH3 0x269 SWAP1 PUSH3 0x6EF JUMP JUMPDEST PUSH1 0x40 MLOAD DUP1 SWAP2 SUB SWAP1 REVERT JUMPDEST DUP4 PUSH1 0x1 PUSH0 PUSH2 0x100 EXP DUP2 SLOAD DUP2 PUSH20 0xFFFFFFFFFFFFFFFFFFFFFFFFFFFFFFFFFFFFFFFF MUL NOT AND SWAP1 DUP4 PUSH20 0xFFFFFFFFFFFFFFFFFFFFFFFFFFFFFFFFFFFFFFFF AND MUL OR SWAP1 SSTORE POP DUP3 PUSH1 0x2 PUSH0 PUSH2 0x100 EXP DUP2 SLOAD DUP2 PUSH20 0xFFFFFFFFFFFFFFFFFFFFFFFFFFFFFFFFFFFFFFFF MUL NOT AND SWAP1 DUP4 PUSH20 0xFFFFFFFFFFFFFFFFFFFFFFFFFFFFFFFFFFFFFFFF AND MUL OR SWAP1 SSTORE POP DUP2 PUSH1 0x3 PUSH0 PUSH2 0x100 EXP DUP2 SLOAD DUP2 PUSH20 0xFFFFFFFFFFFFFFFFFFFFFFFFFFFFFFFFFFFFFFFF MUL NOT AND SWAP1 DUP4 PUSH20 0xFFFFFFFFFFFFFFFFFFFFFFFFFFFFFFFFFFFFFFFF AND MUL OR SWAP1 SSTORE POP POP POP POP POP PUSH3 0x70F JUMP JUMPDEST PUSH0 DUP1 PUSH0 SWAP1 SLOAD SWAP1 PUSH2 0x100 EXP SWAP1 DIV PUSH20 0xFFFFFFFFFFFFFFFFFFFFFFFFFFFFFFFFFFFFFFFF AND SWAP1 POP DUP2 PUSH0 DUP1 PUSH2 0x100 EXP DUP2 SLOAD DUP2 PUSH20 0xFFFFFFFFFFFFFFFFFFFFFFFFFFFFFFFFFFFFFFFF MUL NOT AND SWAP1 DUP4 PUSH20 0xFFFFFFFFFFFFFFFFFFFFFFFFFFFFFFFFFFFFFFFF AND MUL OR SWAP1 SSTORE POP DUP2 PUSH20 0xFFFFFFFFFFFFFFFFFFFFFFFFFFFFFFFFFFFFFFFF AND DUP2 PUSH20 0xFFFFFFFFFFFFFFFFFFFFFFFFFFFFFFFFFFFFFFFF AND PUSH32 0x8BE0079C531659141344CD1FD0A4F28419497F9722A3DAAFE3B4186F6B6457E0 PUSH1 0x40 MLOAD PUSH1 0x40 MLOAD DUP1 SWAP2 SUB SWAP1 LOG3 POP POP JUMP JUMPDEST DUP3 DUP1 SLOAD DUP3 DUP3 SSTORE SWAP1 PUSH0 MSTORE PUSH1 0x20 PUSH0 KECCAK256 SWAP1 DUP2 ADD SWAP3 DUP3 ISZERO PUSH3 0x443 JUMPI SWAP2 PUSH1 0x20 MUL DUP3 ADD JUMPDEST DUP3 DUP2 GT ISZERO PUSH3 0x442 JUMPI DUP3 MLOAD DUP3 SWAP1 PUSH5 0xFFFFFFFFFF AND SWAP1 SSTORE SWAP2 PUSH1 0x20 ADD SWAP2 SWAP1 PUSH1 0x1 ADD SWAP1 PUSH3 0x41C JUMP JUMPDEST JUMPDEST POP SWAP1 POP PUSH3 0x452 SWAP2 SWAP1 PUSH3 0x456 JUMP JUMPDEST POP SWAP1 JUMP JUMPDEST JUMPDEST DUP1 DUP3 GT ISZERO PUSH3 0x46F JUMPI PUSH0 DUP2 PUSH0 SWAP1 SSTORE POP PUSH1 0x1 ADD PUSH3 0x457 JUMP JUMPDEST POP SWAP1 JUMP JUMPDEST PUSH0 DUP1 REVERT JUMPDEST PUSH0 PUSH20 0xFFFFFFFFFFFFFFFFFFFFFFFFFFFFFFFFFFFFFFFF DUP3 AND SWAP1 POP SWAP2 SWAP1 POP JUMP JUMPDEST PUSH0 PUSH3 0x4A2 DUP3 PUSH3 0x477 JUMP JUMPDEST SWAP1 POP SWAP2 SWAP1 POP JUMP JUMPDEST PUSH3 0x4B4 DUP2 PUSH3 0x496 JUMP JUMPDEST DUP2 EQ PUSH3 0x4BF JUMPI PUSH0 DUP1 REVERT JUMPDEST POP JUMP JUMPDEST PUSH0 DUP2 MLOAD SWAP1 POP PUSH3 0x4D2 DUP2 PUSH3 0x4A9 JUMP JUMPDEST SWAP3 SWAP2 POP POP JUMP JUMPDEST PUSH0 PUSH3 0x4E4 DUP3 PUSH3 0x477 JUMP JUMPDEST SWAP1 POP SWAP2 SWAP1 POP JUMP JUMPDEST PUSH3 0x4F6 DUP2 PUSH3 0x4D8 JUMP JUMPDEST DUP2 EQ PUSH3 0x501 JUMPI PUSH0 DUP1 REVERT JUMPDEST POP JUMP JUMPDEST PUSH0 DUP2 MLOAD SWAP1 POP PUSH3 0x514 DUP2 PUSH3 0x4EB JUMP JUMPDEST SWAP3 SWAP2 POP POP JUMP JUMPDEST PUSH0 DUP1 PUSH0 DUP1 PUSH1 0x80 DUP6 DUP8 SUB SLT ISZERO PUSH3 0x535 JUMPI PUSH3 0x534 PUSH3 0x473 JUMP JUMPDEST JUMPDEST PUSH0 PUSH3 0x544 DUP8 DUP3 DUP9 ADD PUSH3 0x4C2 JUMP JUMPDEST SWAP5 POP POP PUSH1 0x20 PUSH3 0x557 DUP8 DUP3 DUP9 ADD PUSH3 0x504 JUMP JUMPDEST SWAP4 POP POP PUSH1 0x40 PUSH3 0x56A DUP8 DUP3 DUP9 ADD PUSH3 0x504 JUMP JUMPDEST SWAP3 POP POP PUSH1 0x60 PUSH3 0x57D DUP8 DUP3 DUP9 ADD PUSH3 0x504 JUMP JUMPDEST SWAP2 POP POP SWAP3 SWAP6 SWAP2 SWAP5 POP SWAP3 POP JUMP JUMPDEST PUSH3 0x594 DUP2 PUSH3 0x4D8 JUMP JUMPDEST DUP3 MSTORE POP POP JUMP JUMPDEST PUSH0 PUSH1 0x20 DUP3 ADD SWAP1 POP PUSH3 0x5AF PUSH0 DUP4 ADD DUP5 PUSH3 0x589 JUMP JUMPDEST SWAP3 SWAP2 POP POP JUMP JUMPDEST PUSH0 DUP3 DUP3 MSTORE PUSH1 0x20 DUP3 ADD SWAP1 POP SWAP3 SWAP2 POP POP JUMP JUMPDEST PUSH32 0x496E76616C69642074726561737572792077616C6C6574000000000000000000 PUSH0 DUP3 ADD MSTORE POP JUMP JUMPDEST PUSH0 PUSH3 0x5FB PUSH1 0x17 DUP4 PUSH3 0x5B5 JUMP JUMPDEST SWAP2 POP PUSH3 0x608 DUP3 PUSH3 0x5C5 JUMP JUMPDEST PUSH1 0x20 DUP3 ADD SWAP1 POP SWAP2 SWAP1 POP JUMP JUMPDEST PUSH0 PUSH1 0x20 DUP3 ADD SWAP1 POP DUP2 DUP2 SUB PUSH0 DUP4 ADD MSTORE PUSH3 0x62C DUP2 PUSH3 0x5ED JUMP JUMPDEST SWAP1 POP SWAP2 SWAP1 POP JUMP JUMPDEST PUSH32 0x496E76616C696420746F6B656E20616464726573730000000000000000000000 PUSH0 DUP3 ADD MSTORE POP JUMP JUMPDEST PUSH0 PUSH3 0x669 PUSH1 0x15 DUP4 PUSH3 0x5B5 JUMP JUMPDEST SWAP2 POP PUSH3 0x676 DUP3 PUSH3 0x633 JUMP JUMPDEST PUSH1 0x20 DUP3 ADD SWAP1 POP SWAP2 SWAP1 POP JUMP JUMPDEST PUSH0 PUSH1 0x20 DUP3 ADD SWAP1 POP DUP2 DUP2 SUB PUSH0 DUP4 ADD MSTORE PUSH3 0x69A DUP2 PUSH3 0x65B JUMP JUMPDEST SWAP1 POP SWAP2 SWAP1 POP JUMP JUMPDEST PUSH32 0x496E76616C696420555344542061646472657373000000000000000000000000 PUSH0 DUP3 ADD MSTORE POP JUMP JUMPDEST PUSH0 PUSH3 0x6D7 PUSH1 0x14 DUP4 PUSH3 0x5B5 JUMP JUMPDEST SWAP2 POP PUSH3 0x6E4 DUP3 PUSH3 0x6A1 JUMP JUMPDEST PUSH1 0x20 DUP3 ADD SWAP1 POP SWAP2 SWAP1 POP JUMP JUMPDEST PUSH0 PUSH1 0x20 DUP3 ADD SWAP1 POP DUP2 DUP2 SUB PUSH0 DUP4 ADD MSTORE PUSH3 0x708 DUP2 PUSH3 0x6C9 JUMP JUMPDEST SWAP1 POP SWAP2 SWAP1 POP JUMP JUMPDEST PUSH2 0x1559 DUP1 PUSH3 0x71D PUSH0 CODECOPY PUSH0 RETURN INVALID PUSH1 0x80 PUSH1 0x40 MSTORE PUSH1 0x4 CALLDATASIZE LT PUSH2 0xC0 JUMPI PUSH0 CALLDATALOAD PUSH1 0xE0 SHR DUP1 PUSH4 0x809D458D GT PUSH2 0x7E JUMPI DUP1 PUSH4 0xB0304813 GT PUSH2 0x58 JUMPI DUP1 PUSH4 0xB0304813 EQ PUSH2 0x226 JUMPI DUP1 PUSH4 0xE89E4ED6 EQ PUSH2 0x250 JUMPI DUP1 PUSH4 0xF2FDE38B EQ PUSH2 0x28C JUMPI DUP1 PUSH4 0xF8D0BB6F EQ PUSH2 0x2B4 JUMPI PUSH2 0xC0 JUMP JUMPDEST DUP1 PUSH4 0x809D458D EQ PUSH2 0x1AA JUMPI DUP1 PUSH4 0x8DA5CB5B EQ PUSH2 0x1D2 JUMPI DUP1 PUSH4 0xA98AD46C EQ PUSH2 0x1FC JUMPI PUSH2 0xC0 JUMP JUMPDEST DUP1 PUSH3 0xB37044 EQ PUSH2 0xC4 JUMPI DUP1 PUSH4 0x14A8BD0D EQ PUSH2 0xEE JUMPI DUP1 PUSH4 0x4626402B EQ PUSH2 0x118 JUMPI DUP1 PUSH4 0x5610ECA0 EQ PUSH2 0x142 JUMPI DUP1 PUSH4 0x715018A6 EQ PUSH2 0x16A JUMPI DUP1 PUSH4 0x7E43C77D EQ PUSH2 0x180 JUMPI JUMPDEST PUSH0 DUP1 REVERT JUMPDEST CALLVALUE DUP1 ISZERO PUSH2 0xCF JUMPI PUSH0 DUP1 REVERT JUMPDEST POP PUSH2 0xD8 PUSH2 0x2BE JUMP JUMPDEST PUSH1 0x40 MLOAD PUSH2 0xE5 SWAP2 SWAP1 PUSH2 0xCD4 JUMP JUMPDEST PUSH1 0x40 MLOAD DUP1 SWAP2 SUB SWAP1 RETURN JUMPDEST CALLVALUE DUP1 ISZERO PUSH2 0xF9 JUMPI PUSH0 DUP1 REVERT JUMPDEST POP PUSH2 0x102 PUSH2 0x2C4 JUMP JUMPDEST PUSH1 0x40 MLOAD PUSH2 0x10F SWAP2 SWAP1 PUSH2 0xCD4 JUMP JUMPDEST PUSH1 0x40 MLOAD DUP1 SWAP2 SUB SWAP1 RETURN JUMPDEST CALLVALUE DUP1 ISZERO PUSH2 0x123 JUMPI PUSH0 DUP1 REVERT JUMPDEST POP PUSH2 0x12C PUSH2 0x2D0 JUMP JUMPDEST PUSH1 0x40 MLOAD PUSH2 0x139 SWAP2 SWAP1 PUSH2 0xD2C JUMP JUMPDEST PUSH1 0x40 MLOAD DUP1 SWAP2 SUB SWAP1 RETURN JUMPDEST CALLVALUE DUP1 ISZERO PUSH2 0x14D JUMPI PUSH0 DUP1 REVERT JUMPDEST POP PUSH2 0x168 PUSH1 0x4 DUP1 CALLDATASIZE SUB DUP2 ADD SWAP1 PUSH2 0x163 SWAP2 SWAP1 PUSH2 0xD73 JUMP JUMPDEST PUSH2 0x2F5 JUMP JUMPDEST STOP JUMPDEST CALLVALUE DUP1 ISZERO PUSH2 0x175 JUMPI PUSH0 DUP1 REVERT JUMPDEST POP PUSH2 0x17E PUSH2 0x562 JUMP JUMPDEST STOP JUMPDEST CALLVALUE DUP1 ISZERO PUSH2 0x18B JUMPI PUSH0 DUP1 REVERT JUMPDEST POP PUSH2 0x194 PUSH2 0x575 JUMP JUMPDEST PUSH1 0x40 MLOAD PUSH2 0x1A1 SWAP2 SWAP1 PUSH2 0xDF9 JUMP JUMPDEST PUSH1 0x40 MLOAD DUP1 SWAP2 SUB SWAP1 RETURN JUMPDEST CALLVALUE DUP1 ISZERO PUSH2 0x1B5 JUMPI PUSH0 DUP1 REVERT JUMPDEST POP PUSH2 0x1D0 PUSH1 0x4 DUP1 CALLDATASIZE SUB DUP2 ADD SWAP1 PUSH2 0x1CB SWAP2 SWAP1 PUSH2 0xE3C JUMP JUMPDEST PUSH2 0x59A JUMP JUMPDEST STOP JUMPDEST CALLVALUE DUP1 ISZERO PUSH2 0x1DD JUMPI PUSH0 DUP1 REVERT JUMPDEST POP PUSH2 0x1E6 PUSH2 0x653 JUMP JUMPDEST PUSH1 0x40 MLOAD PUSH2 0x1F3 SWAP2 SWAP1 PUSH2 0xE87 JUMP JUMPDEST PUSH1 0x40 MLOAD DUP1 SWAP2 SUB SWAP1 RETURN JUMPDEST CALLVALUE DUP1 ISZERO PUSH2 0x207 JUMPI PUSH0 DUP1 REVERT JUMPDEST POP PUSH2 0x210 PUSH2 0x67A JUMP JUMPDEST PUSH1 0x40 MLOAD PUSH2 0x21D SWAP2 SWAP1 PUSH2 0xEC0 JUMP JUMPDEST PUSH1 0x40 MLOAD DUP1 SWAP2 SUB SWAP1 RETURN JUMPDEST CALLVALUE DUP1 ISZERO PUSH2 0x231 JUMPI PUSH0 DUP1 REVERT JUMPDEST POP PUSH2 0x23A PUSH2 0x69F JUMP JUMPDEST PUSH1 0x40 MLOAD PUSH2 0x247 SWAP2 SWAP1 PUSH2 0xCD4 JUMP JUMPDEST PUSH1 0x40 MLOAD DUP1 SWAP2 SUB SWAP1 RETURN JUMPDEST CALLVALUE DUP1 ISZERO PUSH2 0x25B JUMPI PUSH0 DUP1 REVERT JUMPDEST POP PUSH2 0x276 PUSH1 0x4 DUP1 CALLDATASIZE SUB DUP2 ADD SWAP1 PUSH2 0x271 SWAP2 SWAP1 PUSH2 0xD73 JUMP JUMPDEST PUSH2 0x6A5 JUMP JUMPDEST PUSH1 0x40 MLOAD PUSH2 0x283 SWAP2 SWAP1 PUSH2 0xCD4 JUMP JUMPDEST PUSH1 0x40 MLOAD DUP1 SWAP2 SUB SWAP1 RETURN JUMPDEST CALLVALUE DUP1 ISZERO PUSH2 0x297 JUMPI PUSH0 DUP1 REVERT JUMPDEST POP PUSH2 0x2B2 PUSH1 0x4 DUP1 CALLDATASIZE SUB DUP2 ADD SWAP1 PUSH2 0x2AD SWAP2 SWAP1 PUSH2 0xF03 JUMP JUMPDEST PUSH2 0x6C5 JUMP JUMPDEST STOP JUMPDEST PUSH2 0x2BC PUSH2 0x749 JUMP JUMPDEST STOP JUMPDEST PUSH1 0x4 SLOAD DUP2 JUMP JUMPDEST PUSH8 0x16345785D8A0000 DUP2 JUMP JUMPDEST PUSH1 0x1 PUSH0 SWAP1 SLOAD SWAP1 PUSH2 0x100 EXP SWAP1 DIV PUSH20 0xFFFFFFFFFFFFFFFFFFFFFFFFFFFFFFFFFFFFFFFF AND DUP2 JUMP JUMPDEST PUSH0 DUP2 GT PUSH2 0x337 JUMPI PUSH1 0x40 MLOAD PUSH32 0x8C379A000000000000000000000000000000000000000000000000000000000 DUP2 MSTORE PUSH1 0x4 ADD PUSH2 0x32E SWAP1 PUSH2 0xF88 JUMP JUMPDEST PUSH1 0x40 MLOAD DUP1 SWAP2 SUB SWAP1 REVERT JUMPDEST PUSH2 0x3A6 CALLER PUSH1 0x1 PUSH0 SWAP1 SLOAD SWAP1 PUSH2 0x100 EXP SWAP1 DIV PUSH20 0xFFFFFFFFFFFFFFFFFFFFFFFFFFFFFFFFFFFFFFFF AND DUP4 PUSH1 0x3 PUSH0 SWAP1 SLOAD SWAP1 PUSH2 0x100 EXP SWAP1 DIV PUSH20 0xFFFFFFFFFFFFFFFFFFFFFFFFFFFFFFFFFFFFFFFF AND PUSH20 0xFFFFFFFFFFFFFFFFFFFFFFFFFFFFFFFFFFFFFFFF AND PUSH2 0x98F SWAP1 SWAP4 SWAP3 SWAP2 SWAP1 PUSH4 0xFFFFFFFF AND JUMP JUMPDEST PUSH0 PUSH1 0x3 PUSH0 SWAP1 SLOAD SWAP1 PUSH2 0x100 EXP SWAP1 DIV PUSH20 0xFFFFFFFFFFFFFFFFFFFFFFFFFFFFFFFFFFFFFFFF AND PUSH20 0xFFFFFFFFFFFFFFFFFFFFFFFFFFFFFFFFFFFFFFFF AND PUSH4 0x313CE567 PUSH1 0x40 MLOAD DUP2 PUSH4 0xFFFFFFFF AND PUSH1 0xE0 SHL DUP2 MSTORE PUSH1 0x4 ADD PUSH1 0x20 PUSH1 0x40 MLOAD DUP1 DUP4 SUB DUP2 DUP7 GAS STATICCALL ISZERO DUP1 ISZERO PUSH2 0x411 JUMPI RETURNDATASIZE PUSH0 DUP1 RETURNDATACOPY RETURNDATASIZE PUSH0 REVERT JUMPDEST POP POP POP POP PUSH1 0x40 MLOAD RETURNDATASIZE PUSH1 0x1F NOT PUSH1 0x1F DUP3 ADD AND DUP3 ADD DUP1 PUSH1 0x40 MSTORE POP DUP2 ADD SWAP1 PUSH2 0x435 SWAP2 SWAP1 PUSH2 0xFDC JUMP JUMPDEST PUSH1 0xA PUSH2 0x441 SWAP2 SWAP1 PUSH2 0x1163 JUMP JUMPDEST PUSH8 0x16345785D8A0000 DUP4 PUSH2 0x455 SWAP2 SWAP1 PUSH2 0x11AD JUMP JUMPDEST PUSH2 0x45F SWAP2 SWAP1 PUSH2 0x121B JUMP JUMPDEST SWAP1 POP PUSH1 0x2 PUSH0 SWAP1 SLOAD SWAP1 PUSH2 0x100 EXP SWAP1 DIV PUSH20 0xFFFFFFFFFFFFFFFFFFFFFFFFFFFFFFFFFFFFFFFF AND PUSH20 0xFFFFFFFFFFFFFFFFFFFFFFFFFFFFFFFFFFFFFFFF AND PUSH4 0x40C10F19 CALLER DUP4 PUSH1 0x40 MLOAD DUP4 PUSH4 0xFFFFFFFF AND PUSH1 0xE0 SHL DUP2 MSTORE PUSH1 0x4 ADD PUSH2 0x4BD SWAP3 SWAP2 SWAP1 PUSH2 0x124B JUMP JUMPDEST PUSH0 PUSH1 0x40 MLOAD DUP1 DUP4 SUB DUP2 PUSH0 DUP8 DUP1 EXTCODESIZE ISZERO DUP1 ISZERO PUSH2 0x4D4 JUMPI PUSH0 DUP1 REVERT JUMPDEST POP GAS CALL ISZERO DUP1 ISZERO PUSH2 0x4E6 JUMPI RETURNDATASIZE PUSH0 DUP1 RETURNDATACOPY RETURNDATASIZE PUSH0 REVERT JUMPDEST POP POP POP POP DUP2 PUSH1 0x4 PUSH0 DUP3 DUP3 SLOAD PUSH2 0x4FB SWAP2 SWAP1 PUSH2 0x1272 JUMP JUMPDEST SWAP3 POP POP DUP2 SWAP1 SSTORE POP PUSH2 0x50A PUSH2 0xA11 JUMP JUMPDEST CALLER PUSH20 0xFFFFFFFFFFFFFFFFFFFFFFFFFFFFFFFFFFFFFFFF AND PUSH32 0x1CE55F2081708DBEF7AC42C3785B4627CCD4AA19F21B694B54C92DF3D146996A DUP4 DUP4 PUSH1 0x4 SLOAD PUSH1 0x40 MLOAD PUSH2 0x556 SWAP4 SWAP3 SWAP2 SWAP1 PUSH2 0x12A5 JUMP JUMPDEST PUSH1 0x40 MLOAD DUP1 SWAP2 SUB SWAP1 LOG2 POP POP JUMP JUMPDEST PUSH2 0x56A PUSH2 0xAD2 JUMP JUMPDEST PUSH2 0x573 PUSH0 PUSH2 0xB59 JUMP JUMPDEST JUMP JUMPDEST PUSH1 0x2 PUSH0 SWAP1 SLOAD SWAP1 PUSH2 0x100 EXP SWAP1 DIV PUSH20 0xFFFFFFFFFFFFFFFFFFFFFFFFFFFFFFFFFFFFFFFF AND DUP2 JUMP JUMPDEST PUSH2 0x5A2 PUSH2 0xAD2 JUMP JUMPDEST PUSH0 PUSH20 0xFFFFFFFFFFFFFFFFFFFFFFFFFFFFFFFFFFFFFFFF AND DUP2 PUSH20 0xFFFFFFFFFFFFFFFFFFFFFFFFFFFFFFFFFFFFFFFF AND SUB PUSH2 0x610 JUMPI PUSH1 0x40 MLOAD PUSH32 0x8C379A000000000000000000000000000000000000000000000000000000000 DUP2 MSTORE PUSH1 0x4 ADD PUSH2 0x607 SWAP1 PUSH2 0x1324 JUMP JUMPDEST PUSH1 0x40 MLOAD DUP1 SWAP2 SUB SWAP1 REVERT JUMPDEST DUP1 PUSH1 0x1 PUSH0 PUSH2 0x100 EXP DUP2 SLOAD DUP2 PUSH20 0xFFFFFFFFFFFFFFFFFFFFFFFFFFFFFFFFFFFFFFFF MUL NOT AND SWAP1 DUP4 PUSH20 0xFFFFFFFFFFFFFFFFFFFFFFFFFFFFFFFFFFFFFFFF AND MUL OR SWAP1 SSTORE POP POP JUMP JUMPDEST PUSH0 DUP1 PUSH0 SWAP1 SLOAD SWAP1 PUSH2 0x100 EXP SWAP1 DIV PUSH20 0xFFFFFFFFFFFFFFFFFFFFFFFFFFFFFFFFFFFFFFFF AND SWAP1 POP SWAP1 JUMP JUMPDEST PUSH1 0x3 PUSH0 SWAP1 SLOAD SWAP1 PUSH2 0x100 EXP SWAP1 DIV PUSH20 0xFFFFFFFFFFFFFFFFFFFFFFFFFFFFFFFFFFFFFFFF AND DUP2 JUMP JUMPDEST PUSH1 0x6 SLOAD DUP2 JUMP JUMPDEST PUSH1 0x5 DUP2 DUP2 SLOAD DUP2 LT PUSH2 0x6B4 JUMPI PUSH0 DUP1 REVERT JUMPDEST SWAP1 PUSH0 MSTORE PUSH1 0x20 PUSH0 KECCAK256 ADD PUSH0 SWAP2 POP SWAP1 POP SLOAD DUP2 JUMP JUMPDEST PUSH2 0x6CD PUSH2 0xAD2 JUMP JUMPDEST PUSH0 PUSH20 0xFFFFFFFFFFFFFFFFFFFFFFFFFFFFFFFFFFFFFFFF AND DUP2 PUSH20 0xFFFFFFFFFFFFFFFFFFFFFFFFFFFFFFFFFFFFFFFF AND SUB PUSH2 0x73D JUMPI PUSH0 PUSH1 0x40 MLOAD PUSH32 0x1E4FBDF700000000000000000000000000000000000000000000000000000000 DUP2 MSTORE PUSH1 0x4 ADD PUSH2 0x734 SWAP2 SWAP1 PUSH2 0xE87 JUMP JUMPDEST PUSH1 0x40 MLOAD DUP1 SWAP2 SUB SWAP1 REVERT JUMPDEST PUSH2 0x746 DUP2 PUSH2 0xB59 JUMP JUMPDEST POP JUMP JUMPDEST PUSH0 CALLVALUE GT PUSH2 0x78B JUMPI PUSH1 0x40 MLOAD PUSH32 0x8C379A000000000000000000000000000000000000000000000000000000000 DUP2 MSTORE PUSH1 0x4 ADD PUSH2 0x782 SWAP1 PUSH2 0x138C JUMP JUMPDEST PUSH1 0x40 MLOAD DUP1 SWAP2 SUB SWAP1 REVERT JUMPDEST PUSH0 PUSH1 0x1 PUSH0 SWAP1 SLOAD SWAP1 PUSH2 0x100 EXP SWAP1 DIV PUSH20 0xFFFFFFFFFFFFFFFFFFFFFFFFFFFFFFFFFFFFFFFF AND PUSH20 0xFFFFFFFFFFFFFFFFFFFFFFFFFFFFFFFFFFFFFFFF AND CALLVALUE PUSH1 0x40 MLOAD PUSH2 0x7D1 SWAP1 PUSH2 0x13D7 JUMP JUMPDEST PUSH0 PUSH1 0x40 MLOAD DUP1 DUP4 SUB DUP2 DUP6 DUP8 GAS CALL SWAP3 POP POP POP RETURNDATASIZE DUP1 PUSH0 DUP2 EQ PUSH2 0x80B JUMPI PUSH1 0x40 MLOAD SWAP2 POP PUSH1 0x1F NOT PUSH1 0x3F RETURNDATASIZE ADD AND DUP3 ADD PUSH1 0x40 MSTORE RETURNDATASIZE DUP3 MSTORE RETURNDATASIZE PUSH0 PUSH1 0x20 DUP5 ADD RETURNDATACOPY PUSH2 0x810 JUMP JUMPDEST PUSH1 0x60 SWAP2 POP JUMPDEST POP POP SWAP1 POP DUP1 PUSH2 0x854 JUMPI PUSH1 0x40 MLOAD PUSH32 0x8C379A000000000000000000000000000000000000000000000000000000000 DUP2 MSTORE PUSH1 0x4 ADD PUSH2 0x84B SWAP1 PUSH2 0x1435 JUMP JUMPDEST PUSH1 0x40 MLOAD DUP1 SWAP2 SUB SWAP1 REVERT JUMPDEST PUSH0 PUSH8 0xDE0B6B3A7640000 PUSH8 0x16345785D8A0000 CALLVALUE PUSH2 0x872 SWAP2 SWAP1 PUSH2 0x11AD JUMP JUMPDEST PUSH2 0x87C SWAP2 SWAP1 PUSH2 0x121B JUMP JUMPDEST SWAP1 POP PUSH1 0x2 PUSH0 SWAP1 SLOAD SWAP1 PUSH2 0x100 EXP SWAP1 DIV PUSH20 0xFFFFFFFFFFFFFFFFFFFFFFFFFFFFFFFFFFFFFFFF AND PUSH20 0xFFFFFFFFFFFFFFFFFFFFFFFFFFFFFFFFFFFFFFFF AND PUSH4 0x40C10F19 CALLER DUP4 PUSH1 0x40 MLOAD DUP4 PUSH4 0xFFFFFFFF AND PUSH1 0xE0 SHL DUP2 MSTORE PUSH1 0x4 ADD PUSH2 0x8DA SWAP3 SWAP2 SWAP1 PUSH2 0x124B JUMP JUMPDEST PUSH0 PUSH1 0x40 MLOAD DUP1 DUP4 SUB DUP2 PUSH0 DUP8 DUP1 EXTCODESIZE ISZERO DUP1 ISZERO PUSH2 0x8F1 JUMPI PUSH0 DUP1 REVERT JUMPDEST POP GAS CALL ISZERO DUP1 ISZERO PUSH2 0x903 JUMPI RETURNDATASIZE PUSH0 DUP1 RETURNDATACOPY RETURNDATASIZE PUSH0 REVERT JUMPDEST POP POP POP POP PUSH5 0xE8D4A51000 CALLVALUE PUSH2 0x918 SWAP2 SWAP1 PUSH2 0x121B JUMP JUMPDEST PUSH1 0x4 PUSH0 DUP3 DUP3 SLOAD PUSH2 0x928 SWAP2 SWAP1 PUSH2 0x1272 JUMP JUMPDEST SWAP3 POP POP DUP2 SWAP1 SSTORE POP PUSH2 0x937 PUSH2 0xA11 JUMP JUMPDEST CALLER PUSH20 0xFFFFFFFFFFFFFFFFFFFFFFFFFFFFFFFFFFFFFFFF AND PUSH32 0x9C9AD9270AF0183A99BF47EE6BEEBCAD2FC6EF1992082283D76EC94947158B51 CALLVALUE DUP4 PUSH1 0x4 SLOAD PUSH1 0x40 MLOAD PUSH2 0x983 SWAP4 SWAP3 SWAP2 SWAP1 PUSH2 0x12A5 JUMP JUMPDEST PUSH1 0x40 MLOAD DUP1 SWAP2 SUB SWAP1 LOG2 POP POP JUMP JUMPDEST PUSH2 0xA0B DUP5 DUP6 PUSH20 0xFFFFFFFFFFFFFFFFFFFFFFFFFFFFFFFFFFFFFFFF AND PUSH4 0x23B872DD DUP7 DUP7 DUP7 PUSH1 0x40 MLOAD PUSH1 0x24 ADD PUSH2 0x9C4 SWAP4 SWAP3 SWAP2 SWAP1 PUSH2 0x1453 JUMP JUMPDEST PUSH1 0x40 MLOAD PUSH1 0x20 DUP2 DUP4 SUB SUB DUP2 MSTORE SWAP1 PUSH1 0x40 MSTORE SWAP2 POP PUSH1 0xE0 SHL PUSH1 0x20 DUP3 ADD DUP1 MLOAD PUSH28 0xFFFFFFFFFFFFFFFFFFFFFFFFFFFFFFFFFFFFFFFFFFFFFFFFFFFFFFFF DUP4 DUP2 DUP4 AND OR DUP4 MSTORE POP POP POP POP PUSH2 0xC1A JUMP JUMPDEST POP POP POP POP JUMP JUMPDEST PUSH0 PUSH1 0x6 SLOAD SWAP1 POP JUMPDEST PUSH1 0x5 DUP1 SLOAD SWAP1 POP DUP2 LT ISZERO PUSH2 0xACF JUMPI PUSH1 0x5 DUP2 DUP2 SLOAD DUP2 LT PUSH2 0xA39 JUMPI PUSH2 0xA38 PUSH2 0x1488 JUMP JUMPDEST JUMPDEST SWAP1 PUSH0 MSTORE PUSH1 0x20 PUSH0 KECCAK256 ADD SLOAD PUSH1 0x4 SLOAD LT PUSH2 0xAB7 JUMPI PUSH1 0x1 DUP2 PUSH2 0xA57 SWAP2 SWAP1 PUSH2 0x1272 JUMP JUMPDEST PUSH1 0x6 DUP2 SWAP1 SSTORE POP PUSH32 0xE5F196B7C35531C9CDF28EE121967688B244C8557B574489A6182E8F66C929D3 PUSH1 0x5 DUP3 DUP2 SLOAD DUP2 LT PUSH2 0xA92 JUMPI PUSH2 0xA91 PUSH2 0x1488 JUMP JUMPDEST JUMPDEST SWAP1 PUSH0 MSTORE PUSH1 0x20 PUSH0 KECCAK256 ADD SLOAD DUP3 PUSH1 0x40 MLOAD PUSH2 0xAAA SWAP3 SWAP2 SWAP1 PUSH2 0x14B5 JUMP JUMPDEST PUSH1 0x40 MLOAD DUP1 SWAP2 SUB SWAP1 LOG1 PUSH2 0xABC JUMP JUMPDEST PUSH2 0xACF JUMP JUMPDEST DUP1 DUP1 PUSH2 0xAC7 SWAP1 PUSH2 0x14DC JUMP JUMPDEST SWAP2 POP POP PUSH2 0xA18 JUMP JUMPDEST POP JUMP JUMPDEST PUSH2 0xADA PUSH2 0xCB5 JUMP JUMPDEST PUSH20 0xFFFFFFFFFFFFFFFFFFFFFFFFFFFFFFFFFFFFFFFF AND PUSH2 0xAF8 PUSH2 0x653 JUMP JUMPDEST PUSH20 0xFFFFFFFFFFFFFFFFFFFFFFFFFFFFFFFFFFFFFFFF AND EQ PUSH2 0xB57 JUMPI PUSH2 0xB1B PUSH2 0xCB5 JUMP JUMPDEST PUSH1 0x40 MLOAD PUSH32 0x118CDAA700000000000000000000000000000000000000000000000000000000 DUP2 MSTORE PUSH1 0x4 ADD PUSH2 0xB4E SWAP2 SWAP1 PUSH2 0xE87 JUMP JUMPDEST PUSH1 0x40 MLOAD DUP1 SWAP2 SUB SWAP1 REVERT JUMPDEST JUMP JUMPDEST PUSH0 DUP1 PUSH0 SWAP1 SLOAD SWAP1 PUSH2 0x100 EXP SWAP1 DIV PUSH20 0xFFFFFFFFFFFFFFFFFFFFFFFFFFFFFFFFFFFFFFFF AND SWAP1 POP DUP2 PUSH0 DUP1 PUSH2 0x100 EXP DUP2 SLOAD DUP2 PUSH20 0xFFFFFFFFFFFFFFFFFFFFFFFFFFFFFFFFFFFFFFFF MUL NOT AND SWAP1 DUP4 PUSH20 0xFFFFFFFFFFFFFFFFFFFFFFFFFFFFFFFFFFFFFFFF AND MUL OR SWAP1 SSTORE POP DUP2 PUSH20 0xFFFFFFFFFFFFFFFFFFFFFFFFFFFFFFFFFFFFFFFF AND DUP2 PUSH20 0xFFFFFFFFFFFFFFFFFFFFFFFFFFFFFFFFFFFFFFFF AND PUSH32 0x8BE0079C531659141344CD1FD0A4F28419497F9722A3DAAFE3B4186F6B6457E0 PUSH1 0x40 MLOAD PUSH1 0x40 MLOAD DUP1 SWAP2 SUB SWAP1 LOG3 POP POP JUMP JUMPDEST PUSH0 DUP1 PUSH1 0x20 PUSH0 DUP5 MLOAD PUSH1 0x20 DUP7 ADD PUSH0 DUP9 GAS CALL DUP1 PUSH2 0xC39 JUMPI PUSH1 0x40 MLOAD RETURNDATASIZE PUSH0 DUP3 RETURNDATACOPY RETURNDATASIZE DUP2 REVERT JUMPDEST RETURNDATASIZE SWAP3 POP PUSH0 MLOAD SWAP2 POP POP PUSH0 DUP3 EQ PUSH2 0xC52 JUMPI PUSH1 0x1 DUP2 EQ ISZERO PUSH2 0xC6D JUMP JUMPDEST PUSH0 DUP5 PUSH20 0xFFFFFFFFFFFFFFFFFFFFFFFFFFFFFFFFFFFFFFFF AND EXTCODESIZE EQ JUMPDEST ISZERO PUSH2 0xCAF JUMPI DUP4 PUSH1 0x40 MLOAD PUSH32 0x5274AFE700000000000000000000000000000000000000000000000000000000 DUP2 MSTORE PUSH1 0x4 ADD PUSH2 0xCA6 SWAP2 SWAP1 PUSH2 0xE87 JUMP JUMPDEST PUSH1 0x40 MLOAD DUP1 SWAP2 SUB SWAP1 REVERT JUMPDEST POP POP POP POP JUMP JUMPDEST PUSH0 CALLER SWAP1 POP SWAP1 JUMP JUMPDEST PUSH0 DUP2 SWAP1 POP SWAP2 SWAP1 POP JUMP JUMPDEST PUSH2 0xCCE DUP2 PUSH2 0xCBC JUMP JUMPDEST DUP3 MSTORE POP POP JUMP JUMPDEST PUSH0 PUSH1 0x20 DUP3 ADD SWAP1 POP PUSH2 0xCE7 PUSH0 DUP4 ADD DUP5 PUSH2 0xCC5 JUMP JUMPDEST SWAP3 SWAP2 POP POP JUMP JUMPDEST PUSH0 PUSH20 0xFFFFFFFFFFFFFFFFFFFFFFFFFFFFFFFFFFFFFFFF DUP3 AND SWAP1 POP SWAP2 SWAP1 POP JUMP JUMPDEST PUSH0 PUSH2 0xD16 DUP3 PUSH2 0xCED JUMP JUMPDEST SWAP1 POP SWAP2 SWAP1 POP JUMP JUMPDEST PUSH2 0xD26 DUP2 PUSH2 0xD0C JUMP JUMPDEST DUP3 MSTORE POP POP JUMP JUMPDEST PUSH0 PUSH1 0x20 DUP3 ADD SWAP1 POP PUSH2 0xD3F PUSH0 DUP4 ADD DUP5 PUSH2 0xD1D JUMP JUMPDEST SWAP3 SWAP2 POP POP JUMP JUMPDEST PUSH0 DUP1 REVERT JUMPDEST PUSH2 0xD52 DUP2 PUSH2 0xCBC JUMP JUMPDEST DUP2 EQ PUSH2 0xD5C JUMPI PUSH0 DUP1 REVERT JUMPDEST POP JUMP JUMPDEST PUSH0 DUP2 CALLDATALOAD SWAP1 POP PUSH2 0xD6D DUP2 PUSH2 0xD49 JUMP JUMPDEST SWAP3 SWAP2 POP POP JUMP JUMPDEST PUSH0 PUSH1 0x20 DUP3 DUP5 SUB SLT ISZERO PUSH2 0xD88 JUMPI PUSH2 0xD87 PUSH2 0xD45 JUMP JUMPDEST JUMPDEST PUSH0 PUSH2 0xD95 DUP5 DUP3 DUP6 ADD PUSH2 0xD5F JUMP JUMPDEST SWAP2 POP POP SWAP3 SWAP2 POP POP JUMP JUMPDEST PUSH0 DUP2 SWAP1 POP SWAP2 SWAP1 POP JUMP JUMPDEST PUSH0 PUSH2 0xDC1 PUSH2 0xDBC PUSH2 0xDB7 DUP5 PUSH2 0xCED JUMP JUMPDEST PUSH2 0xD9E JUMP JUMPDEST PUSH2 0xCED JUMP JUMPDEST SWAP1 POP SWAP2 SWAP1 POP JUMP JUMPDEST PUSH0 PUSH2 0xDD2 DUP3 PUSH2 0xDA7 JUMP JUMPDEST SWAP1 POP SWAP2 SWAP1 POP JUMP JUMPDEST PUSH0 PUSH2 0xDE3 DUP3 PUSH2 0xDC8 JUMP JUMPDEST SWAP1 POP SWAP2 SWAP1 POP JUMP JUMPDEST PUSH2 0xDF3 DUP2 PUSH2 0xDD9 JUMP JUMPDEST DUP3 MSTORE POP POP JUMP JUMPDEST PUSH0 PUSH1 0x20 DUP3 ADD SWAP1 POP PUSH2 0xE0C PUSH0 DUP4 ADD DUP5 PUSH2 0xDEA JUMP JUMPDEST SWAP3 SWAP2 POP POP JUMP JUMPDEST PUSH2 0xE1B DUP2 PUSH2 0xD0C JUMP JUMPDEST DUP2 EQ PUSH2 0xE25 JUMPI PUSH0 DUP1 REVERT JUMPDEST POP JUMP JUMPDEST PUSH0 DUP2 CALLDATALOAD SWAP1 POP PUSH2 0xE36 DUP2 PUSH2 0xE12 JUMP JUMPDEST SWAP3 SWAP2 POP POP JUMP JUMPDEST PUSH0 PUSH1 0x20 DUP3 DUP5 SUB SLT ISZERO PUSH2 0xE51 JUMPI PUSH2 0xE50 PUSH2 0xD45 JUMP JUMPDEST JUMPDEST PUSH0 PUSH2 0xE5E DUP5 DUP3 DUP6 ADD PUSH2 0xE28 JUMP JUMPDEST SWAP2 POP POP SWAP3 SWAP2 POP POP JUMP JUMPDEST PUSH0 PUSH2 0xE71 DUP3 PUSH2 0xCED JUMP JUMPDEST SWAP1 POP SWAP2 SWAP1 POP JUMP JUMPDEST PUSH2 0xE81 DUP2 PUSH2 0xE67 JUMP JUMPDEST DUP3 MSTORE POP POP JUMP JUMPDEST PUSH0 PUSH1 0x20 DUP3 ADD SWAP1 POP PUSH2 0xE9A PUSH0 DUP4 ADD DUP5 PUSH2 0xE78 JUMP JUMPDEST SWAP3 SWAP2 POP POP JUMP JUMPDEST PUSH0 PUSH2 0xEAA DUP3 PUSH2 0xDC8 JUMP JUMPDEST SWAP1 POP SWAP2 SWAP1 POP JUMP JUMPDEST PUSH2 0xEBA DUP2 PUSH2 0xEA0 JUMP JUMPDEST DUP3 MSTORE POP POP JUMP JUMPDEST PUSH0 PUSH1 0x20 DUP3 ADD SWAP1 POP PUSH2 0xED3 PUSH0 DUP4 ADD DUP5 PUSH2 0xEB1 JUMP JUMPDEST SWAP3 SWAP2 POP POP JUMP JUMPDEST PUSH2 0xEE2 DUP2 PUSH2 0xE67 JUMP JUMPDEST DUP2 EQ PUSH2 0xEEC JUMPI PUSH0 DUP1 REVERT JUMPDEST POP JUMP JUMPDEST PUSH0 DUP2 CALLDATALOAD SWAP1 POP PUSH2 0xEFD DUP2 PUSH2 0xED9 JUMP JUMPDEST SWAP3 SWAP2 POP POP JUMP JUMPDEST PUSH0 PUSH1 0x20 DUP3 DUP5 SUB SLT ISZERO PUSH2 0xF18 JUMPI PUSH2 0xF17 PUSH2 0xD45 JUMP JUMPDEST JUMPDEST PUSH0 PUSH2 0xF25 DUP5 DUP3 DUP6 ADD PUSH2 0xEEF JUMP JUMPDEST SWAP2 POP POP SWAP3 SWAP2 POP POP JUMP JUMPDEST PUSH0 DUP3 DUP3 MSTORE PUSH1 0x20 DUP3 ADD SWAP1 POP SWAP3 SWAP2 POP POP JUMP JUMPDEST PUSH32 0x416D6F756E74206D7573742062652067726561746572207468616E2030000000 PUSH0 DUP3 ADD MSTORE POP JUMP JUMPDEST PUSH0 PUSH2 0xF72 PUSH1 0x1D DUP4 PUSH2 0xF2E JUMP JUMPDEST SWAP2 POP PUSH2 0xF7D DUP3 PUSH2 0xF3E JUMP JUMPDEST PUSH1 0x20 DUP3 ADD SWAP1 POP SWAP2 SWAP1 POP JUMP JUMPDEST PUSH0 PUSH1 0x20 DUP3 ADD SWAP1 POP DUP2 DUP2 SUB PUSH0 DUP4 ADD MSTORE PUSH2 0xF9F DUP2 PUSH2 0xF66 JUMP JUMPDEST SWAP1 POP SWAP2 SWAP1 POP JUMP JUMPDEST PUSH0 PUSH1 0xFF DUP3 AND SWAP1 POP SWAP2 SWAP1 POP JUMP JUMPDEST PUSH2 0xFBB DUP2 PUSH2 0xFA6 JUMP JUMPDEST DUP2 EQ PUSH2 0xFC5 JUMPI PUSH0 DUP1 REVERT JUMPDEST POP JUMP JUMPDEST PUSH0 DUP2 MLOAD SWAP1 POP PUSH2 0xFD6 DUP2 PUSH2 0xFB2 JUMP JUMPDEST SWAP3 SWAP2 POP POP JUMP JUMPDEST PUSH0 PUSH1 0x20 DUP3 DUP5 SUB SLT ISZERO PUSH2 0xFF1 JUMPI PUSH2 0xFF0 PUSH2 0xD45 JUMP JUMPDEST JUMPDEST PUSH0 PUSH2 0xFFE DUP5 DUP3 DUP6 ADD PUSH2 0xFC8 JUMP JUMPDEST SWAP2 POP POP SWAP3 SWAP2 POP POP JUMP JUMPDEST PUSH32 0x4E487B7100000000000000000000000000000000000000000000000000000000 PUSH0 MSTORE PUSH1 0x11 PUSH1 0x4 MSTORE PUSH1 0x24 PUSH0 REVERT JUMPDEST PUSH0 DUP2 PUSH1 0x1 SHR SWAP1 POP SWAP2 SWAP1 POP JUMP JUMPDEST PUSH0 DUP1 DUP3 SWAP2 POP DUP4 SWAP1 POP JUMPDEST PUSH1 0x1 DUP6 GT ISZERO PUSH2 0x1089 JUMPI DUP1 DUP7 DIV DUP2 GT ISZERO PUSH2 0x1065 JUMPI PUSH2 0x1064 PUSH2 0x1007 JUMP JUMPDEST JUMPDEST PUSH1 0x1 DUP6 AND ISZERO PUSH2 0x1074 JUMPI DUP1 DUP3 MUL SWAP2 POP JUMPDEST DUP1 DUP2 MUL SWAP1 POP PUSH2 0x1082 DUP6 PUSH2 0x1034 JUMP JUMPDEST SWAP5 POP PUSH2 0x1049 JUMP JUMPDEST SWAP5 POP SWAP5 SWAP3 POP POP POP JUMP JUMPDEST PUSH0 DUP3 PUSH2 0x10A1 JUMPI PUSH1 0x1 SWAP1 POP PUSH2 0x115C JUMP JUMPDEST DUP2 PUSH2 0x10AE JUMPI PUSH0 SWAP1 POP PUSH2 0x115C JUMP JUMPDEST DUP2 PUSH1 0x1 DUP2 EQ PUSH2 0x10C4 JUMPI PUSH1 0x2 DUP2 EQ PUSH2 0x10CE JUMPI PUSH2 0x10FD JUMP JUMPDEST PUSH1 0x1 SWAP2 POP POP PUSH2 0x115C JUMP JUMPDEST PUSH1 0xFF DUP5 GT ISZERO PUSH2 0x10E0 JUMPI PUSH2 0x10DF PUSH2 0x1007 JUMP JUMPDEST JUMPDEST DUP4 PUSH1 0x2 EXP SWAP2 POP DUP5 DUP3 GT ISZERO PUSH2 0x10F7 JUMPI PUSH2 0x10F6 PUSH2 0x1007 JUMP JUMPDEST JUMPDEST POP PUSH2 0x115C JUMP JUMPDEST POP PUSH1 0x20 DUP4 LT PUSH2 0x133 DUP4 LT AND PUSH1 0x4E DUP5 LT PUSH1 0xB DUP5 LT AND OR ISZERO PUSH2 0x1132 JUMPI DUP3 DUP3 EXP SWAP1 POP DUP4 DUP2 GT ISZERO PUSH2 0x112D JUMPI PUSH2 0x112C PUSH2 0x1007 JUMP JUMPDEST JUMPDEST PUSH2 0x115C JUMP JUMPDEST PUSH2 0x113F DUP5 DUP5 DUP5 PUSH1 0x1 PUSH2 0x1040 JUMP JUMPDEST SWAP3 POP SWAP1 POP DUP2 DUP5 DIV DUP2 GT ISZERO PUSH2 0x1156 JUMPI PUSH2 0x1155 PUSH2 0x1007 JUMP JUMPDEST JUMPDEST DUP2 DUP2 MUL SWAP1 POP JUMPDEST SWAP4 SWAP3 POP POP POP JUMP JUMPDEST PUSH0 PUSH2 0x116D DUP3 PUSH2 0xCBC JUMP JUMPDEST SWAP2 POP PUSH2 0x1178 DUP4 PUSH2 0xFA6 JUMP JUMPDEST SWAP3 POP PUSH2 0x11A5 PUSH32 0xFFFFFFFFFFFFFFFFFFFFFFFFFFFFFFFFFFFFFFFFFFFFFFFFFFFFFFFFFFFFFFFF DUP5 DUP5 PUSH2 0x1092 JUMP JUMPDEST SWAP1 POP SWAP3 SWAP2 POP POP JUMP JUMPDEST PUSH0 PUSH2 0x11B7 DUP3 PUSH2 0xCBC JUMP JUMPDEST SWAP2 POP PUSH2 0x11C2 DUP4 PUSH2 0xCBC JUMP JUMPDEST SWAP3 POP DUP3 DUP3 MUL PUSH2 0x11D0 DUP2 PUSH2 0xCBC JUMP JUMPDEST SWAP2 POP DUP3 DUP3 DIV DUP5 EQ DUP4 ISZERO OR PUSH2 0x11E7 JUMPI PUSH2 0x11E6 PUSH2 0x1007 JUMP JUMPDEST JUMPDEST POP SWAP3 SWAP2 POP POP JUMP JUMPDEST PUSH32 0x4E487B7100000000000000000000000000000000000000000000000000000000 PUSH0 MSTORE PUSH1 0x12 PUSH1 0x4 MSTORE PUSH1 0x24 PUSH0 REVERT JUMPDEST PUSH0 PUSH2 0x1225 DUP3 PUSH2 0xCBC JUMP JUMPDEST SWAP2 POP PUSH2 0x1230 DUP4 PUSH2 0xCBC JUMP JUMPDEST SWAP3 POP DUP3 PUSH2 0x1240 JUMPI PUSH2 0x123F PUSH2 0x11EE JUMP JUMPDEST JUMPDEST DUP3 DUP3 DIV SWAP1 POP SWAP3 SWAP2 POP POP JUMP JUMPDEST PUSH0 PUSH1 0x40 DUP3 ADD SWAP1 POP PUSH2 0x125E PUSH0 DUP4 ADD DUP6 PUSH2 0xE78 JUMP JUMPDEST PUSH2 0x126B PUSH1 0x20 DUP4 ADD DUP5 PUSH2 0xCC5 JUMP JUMPDEST SWAP4 SWAP3 POP POP POP JUMP JUMPDEST PUSH0 PUSH2 0x127C DUP3 PUSH2 0xCBC JUMP JUMPDEST SWAP2 POP PUSH2 0x1287 DUP4 PUSH2 0xCBC JUMP JUMPDEST SWAP3 POP DUP3 DUP3 ADD SWAP1 POP DUP1 DUP3 GT ISZERO PUSH2 0x129F JUMPI PUSH2 0x129E PUSH2 0x1007 JUMP JUMPDEST JUMPDEST SWAP3 SWAP2 POP POP JUMP JUMPDEST PUSH0 PUSH1 0x60 DUP3 ADD SWAP1 POP PUSH2 0x12B8 PUSH0 DUP4 ADD DUP7 PUSH2 0xCC5 JUMP JUMPDEST PUSH2 0x12C5 PUSH1 0x20 DUP4 ADD DUP6 PUSH2 0xCC5 JUMP JUMPDEST PUSH2 0x12D2 PUSH1 0x40 DUP4 ADD DUP5 PUSH2 0xCC5 JUMP JUMPDEST SWAP5 SWAP4 POP POP POP POP JUMP JUMPDEST PUSH32 0x496E76616C696420616464726573730000000000000000000000000000000000 PUSH0 DUP3 ADD MSTORE POP JUMP JUMPDEST PUSH0 PUSH2 0x130E PUSH1 0xF DUP4 PUSH2 0xF2E JUMP JUMPDEST SWAP2 POP PUSH2 0x1319 DUP3 PUSH2 0x12DA JUMP JUMPDEST PUSH1 0x20 DUP3 ADD SWAP1 POP SWAP2 SWAP1 POP JUMP JUMPDEST PUSH0 PUSH1 0x20 DUP3 ADD SWAP1 POP DUP2 DUP2 SUB PUSH0 DUP4 ADD MSTORE PUSH2 0x133B DUP2 PUSH2 0x1302 JUMP JUMPDEST SWAP1 POP SWAP2 SWAP1 POP JUMP JUMPDEST PUSH32 0x5A65726F20646F6E6174696F6E206E6F7420616C6C6F77656400000000000000 PUSH0 DUP3 ADD MSTORE POP JUMP JUMPDEST PUSH0 PUSH2 0x1376 PUSH1 0x19 DUP4 PUSH2 0xF2E JUMP JUMPDEST SWAP2 POP PUSH2 0x1381 DUP3 PUSH2 0x1342 JUMP JUMPDEST PUSH1 0x20 DUP3 ADD SWAP1 POP SWAP2 SWAP1 POP JUMP JUMPDEST PUSH0 PUSH1 0x20 DUP3 ADD SWAP1 POP DUP2 DUP2 SUB PUSH0 DUP4 ADD MSTORE PUSH2 0x13A3 DUP2 PUSH2 0x136A JUMP JUMPDEST SWAP1 POP SWAP2 SWAP1 POP JUMP JUMPDEST PUSH0 DUP2 SWAP1 POP SWAP3 SWAP2 POP POP JUMP JUMPDEST POP JUMP JUMPDEST PUSH0 PUSH2 0x13C2 PUSH0 DUP4 PUSH2 0x13AA JUMP JUMPDEST SWAP2 POP PUSH2 0x13CD DUP3 PUSH2 0x13B4 JUMP JUMPDEST PUSH0 DUP3 ADD SWAP1 POP SWAP2 SWAP1 POP JUMP JUMPDEST PUSH0 PUSH2 0x13E1 DUP3 PUSH2 0x13B7 JUMP JUMPDEST SWAP2 POP DUP2 SWAP1 POP SWAP2 SWAP1 POP JUMP JUMPDEST PUSH32 0x504F4C207472616E73666572206661696C656400000000000000000000000000 PUSH0 DUP3 ADD MSTORE POP JUMP JUMPDEST PUSH0 PUSH2 0x141F PUSH1 0x13 DUP4 PUSH2 0xF2E JUMP JUMPDEST SWAP2 POP PUSH2 0x142A DUP3 PUSH2 0x13EB JUMP JUMPDEST PUSH1 0x20 DUP3 ADD SWAP1 POP SWAP2 SWAP1 POP JUMP JUMPDEST PUSH0 PUSH1 0x20 DUP3 ADD SWAP1 POP DUP2 DUP2 SUB PUSH0 DUP4 ADD MSTORE PUSH2 0x144C DUP2 PUSH2 0x1413 JUMP JUMPDEST SWAP1 POP SWAP2 SWAP1 POP JUMP JUMPDEST PUSH0 PUSH1 0x60 DUP3 ADD SWAP1 POP PUSH2 0x1466 PUSH0 DUP4 ADD DUP7 PUSH2 0xE78 JUMP JUMPDEST PUSH2 0x1473 PUSH1 0x20 DUP4 ADD DUP6 PUSH2 0xE78 JUMP JUMPDEST PUSH2 0x1480 PUSH1 0x40 DUP4 ADD DUP5 PUSH2 0xCC5 JUMP JUMPDEST SWAP5 SWAP4 POP POP POP POP JUMP JUMPDEST PUSH32 0x4E487B7100000000000000000000000000000000000000000000000000000000 PUSH0 MSTORE PUSH1 0x32 PUSH1 0x4 MSTORE PUSH1 0x24 PUSH0 REVERT JUMPDEST PUSH0 PUSH1 0x40 DUP3 ADD SWAP1 POP PUSH2 0x14C8 PUSH0 DUP4 ADD DUP6 PUSH2 0xCC5 JUMP JUMPDEST PUSH2 0x14D5 PUSH1 0x20 DUP4 ADD DUP5 PUSH2 0xCC5 JUMP JUMPDEST SWAP4 SWAP3 POP POP POP JUMP JUMPDEST PUSH0 PUSH2 0x14E6 DUP3 PUSH2 0xCBC JUMP JUMPDEST SWAP2 POP PUSH32 0xFFFFFFFFFFFFFFFFFFFFFFFFFFFFFFFFFFFFFFFFFFFFFFFFFFFFFFFFFFFFFFFF DUP3 SUB PUSH2 0x1518 JUMPI PUSH2 0x1517 PUSH2 0x1007 JUMP JUMPDEST JUMPDEST PUSH1 0x1 DUP3 ADD SWAP1 POP SWAP2 SWAP1 POP JUMP INVALID LOG2 PUSH5 0x6970667358 0x22 SLT KECCAK256 0xA8 0xF 0xDC 0x27 SIGNEXTEND CREATE2 SLOAD 0x1E 0xB6 0xE CALLCODE 0xD7 PUSH26 0x63F947250945D00EE1CB7396B513DED48BE76464736F6C634300 ADDMOD EQ STOP CALLER "
		},
		"gasEstimates": {
			"creation": {
				"codeDepositCost": "1093000",
				"executionCost": "infinite",
				"totalCost": "infinite"
			},
			"external": {
				"EXCHANGE_RATE()": "348",
				"currentMilestone()": "2447",
				"donatePOL()": "infinite",
				"donateUSDT(uint256)": "infinite",
				"graceToken()": "infinite",
				"milestones(uint256)": "infinite",
				"owner()": "2560",
				"renounceOwnership()": "infinite",
				"totalDonated()": "2426",
				"transferOwnership(address)": "infinite",
				"treasuryWallet()": "2553",
				"updateTreasuryWallet(address)": "infinite",
				"usdtToken()": "infinite"
			},
			"internal": {
				"_checkMilestone()": "infinite"
			}
		},
		"methodIdentifiers": {
			"EXCHANGE_RATE()": "14a8bd0d",
			"currentMilestone()": "b0304813",
			"donatePOL()": "f8d0bb6f",
			"donateUSDT(uint256)": "5610eca0",
			"graceToken()": "7e43c77d",
			"milestones(uint256)": "e89e4ed6",
			"owner()": "8da5cb5b",
			"renounceOwnership()": "715018a6",
			"totalDonated()": "00b37044",
			"transferOwnership(address)": "f2fde38b",
			"treasuryWallet()": "4626402b",
			"updateTreasuryWallet(address)": "809d458d",
			"usdtToken()": "a98ad46c"
		}
	},
	"abi": [
		{
			"inputs": [
				{
					"internalType": "address payable",
					"name": "_treasuryWallet",
					"type": "address"
				},
				{
					"internalType": "address",
					"name": "_graceToken",
					"type": "address"
				},
				{
					"internalType": "address",
					"name": "_usdtToken",
					"type": "address"
				},
				{
					"internalType": "address",
					"name": "initialOwner",
					"type": "address"
				}
			],
			"stateMutability": "nonpayable",
			"type": "constructor"
		},
		{
			"inputs": [
				{
					"internalType": "address",
					"name": "owner",
					"type": "address"
				}
			],
			"name": "OwnableInvalidOwner",
			"type": "error"
		},
		{
			"inputs": [
				{
					"internalType": "address",
					"name": "account",
					"type": "address"
				}
			],
			"name": "OwnableUnauthorizedAccount",
			"type": "error"
		},
		{
			"inputs": [
				{
					"internalType": "address",
					"name": "token",
					"type": "address"
				}
			],
			"name": "SafeERC20FailedOperation",
			"type": "error"
		},
		{
			"anonymous": false,
			"inputs": [
				{
					"indexed": true,
					"internalType": "address",
					"name": "donor",
					"type": "address"
				},
				{
					"indexed": false,
					"internalType": "uint256",
					"name": "amount",
					"type": "uint256"
				},
				{
					"indexed": false,
					"internalType": "uint256",
					"name": "graceMinted",
					"type": "uint256"
				},
				{
					"indexed": false,
					"internalType": "uint256",
					"name": "newTotal",
					"type": "uint256"
				}
			],
			"name": "DonatedPOL",
			"type": "event"
		},
		{
			"anonymous": false,
			"inputs": [
				{
					"indexed": true,
					"internalType": "address",
					"name": "donor",
					"type": "address"
				},
				{
					"indexed": false,
					"internalType": "uint256",
					"name": "amount",
					"type": "uint256"
				},
				{
					"indexed": false,
					"internalType": "uint256",
					"name": "graceMinted",
					"type": "uint256"
				},
				{
					"indexed": false,
					"internalType": "uint256",
					"name": "newTotal",
					"type": "uint256"
				}
			],
			"name": "DonatedUSDT",
			"type": "event"
		},
		{
			"anonymous": false,
			"inputs": [
				{
					"indexed": false,
					"internalType": "uint256",
					"name": "milestoneAmount",
					"type": "uint256"
				},
				{
					"indexed": false,
					"internalType": "uint256",
					"name": "milestoneIndex",
					"type": "uint256"
				}
			],
			"name": "MilestoneReached",
			"type": "event"
		},
		{
			"anonymous": false,
			"inputs": [
				{
					"indexed": true,
					"internalType": "address",
					"name": "previousOwner",
					"type": "address"
				},
				{
					"indexed": true,
					"internalType": "address",
					"name": "newOwner",
					"type": "address"
				}
			],
			"name": "OwnershipTransferred",
			"type": "event"
		},
		{
			"inputs": [],
			"name": "EXCHANGE_RATE",
			"outputs": [
				{
					"internalType": "uint256",
					"name": "",
					"type": "uint256"
				}
			],
			"stateMutability": "view",
			"type": "function"
		},
		{
			"inputs": [],
			"name": "currentMilestone",
			"outputs": [
				{
					"internalType": "uint256",
					"name": "",
					"type": "uint256"
				}
			],
			"stateMutability": "view",
			"type": "function"
		},
		{
			"inputs": [],
			"name": "donatePOL",
			"outputs": [],
			"stateMutability": "payable",
			"type": "function"
		},
		{
			"inputs": [
				{
					"internalType": "uint256",
					"name": "amount",
					"type": "uint256"
				}
			],
			"name": "donateUSDT",
			"outputs": [],
			"stateMutability": "nonpayable",
			"type": "function"
		},
		{
			"inputs": [],
			"name": "graceToken",
			"outputs": [
				{
					"internalType": "contract IGraceToken",
					"name": "",
					"type": "address"
				}
			],
			"stateMutability": "view",
			"type": "function"
		},
		{
			"inputs": [
				{
					"internalType": "uint256",
					"name": "",
					"type": "uint256"
				}
			],
			"name": "milestones",
			"outputs": [
				{
					"internalType": "uint256",
					"name": "",
					"type": "uint256"
				}
			],
			"stateMutability": "view",
			"type": "function"
		},
		{
			"inputs": [],
			"name": "owner",
			"outputs": [
				{
					"internalType": "address",
					"name": "",
					"type": "address"
				}
			],
			"stateMutability": "view",
			"type": "function"
		},
		{
			"inputs": [],
			"name": "renounceOwnership",
			"outputs": [],
			"stateMutability": "nonpayable",
			"type": "function"
		},
		{
			"inputs": [],
			"name": "totalDonated",
			"outputs": [
				{
					"internalType": "uint256",
					"name": "",
					"type": "uint256"
				}
			],
			"stateMutability": "view",
			"type": "function"
		},
		{
			"inputs": [
				{
					"internalType": "address",
					"name": "newOwner",
					"type": "address"
				}
			],
			"name": "transferOwnership",
			"outputs": [],
			"stateMutability": "nonpayable",
			"type": "function"
		},
		{
			"inputs": [],
			"name": "treasuryWallet",
			"outputs": [
				{
					"internalType": "address payable",
					"name": "",
					"type": "address"
				}
			],
			"stateMutability": "view",
			"type": "function"
		},
		{
			"inputs": [
				{
					"internalType": "address payable",
					"name": "newWallet",
					"type": "address"
				}
			],
			"name": "updateTreasuryWallet",
			"outputs": [],
			"stateMutability": "nonpayable",
			"type": "function"
		},
		{
			"inputs": [],
			"name": "usdtToken",
			"outputs": [
				{
					"internalType": "contract IERC20",
					"name": "",
					"type": "address"
				}
			],
			"stateMutability": "view",
			"type": "function"
		}
	]
}